:1000000019EF03F000000000046ED8CF05F0E0CF38
:1000100006F00001E9CF0CF0EACF07F0E1CF08F0DD
:10002000E2CF09F0D9CF0AF0DACF0BF0F3CF12F01C
:10003000F4CF13F0FACF14F0F5CF15F0F6CF16F099
:10004000F7CF17F000C00EF001C00FF002C010F0A3
:1000500003C011F0F2AA30EF00F0F2B484EF00F028
:10006000F0A836EF00F0F0B2A0EF00F09DAA3CEF50
:1000700000F09EBA6FEF00F00EC000F00FC001F06C
:1000800010C002F011C003F00CC0E9FF07C0EAFF86
:10009000078E08C0E1FF09C0E2FF0AC0D9FF0BC00C
:1000A000DAFF12C0F3FF13C0F4FF14C0FAFF15C04B
:1000B000F5FF16C0F6FF17C0F7FF045006C0E0FFBB
:1000C00005C0D8FF10009EAAFED7ABCF19F0AECF67
:1000D00001F019A202D0AB98AB8870EF00F0F3D713
:1000E00001C069F0036A6A51220FE96E000E032015
:1000F000EA6E69C0EFFF6A2B69510D0802E16A6B75
:1001000033809E9A3CEF00F0652BD8B4662B665383
:1001100005E16551630802E3828001D08290665157
:10012000020807E2FF0A03E16551E70802E2666B95
:10013000656BD76A050ED66EF294F2943CEF00F030
:10014000820E946E8190816B81510F081AE3806B4F
:10015000805107080BE3D8908237829182B2828166
:100160008180818081908190802BF2D7036A8151B8
:10017000440FE96E000E0320EA6E82C0EFFF812B70
:10018000E3D7006A81BC002A010E001A00A0819CFE
:1001900000B0818CF092F0923CEF00F0454C46416B
:1001A00054454B000A0D00000A0D0000D190C150CB
:1001B000C00B0F09C16EC290B098C69A010EC66EF0
:1001C000000EC76EC30ED56ECD6A000ECA6E000E4D
:1001D000CB6EB16A070EB46E9750976E1A0E006E12
:1001E000002EFED70000B450A19CB56AD26A700EF2
:1001F000D36E400E9B6ED350000E926E240E936E03
:10020000800E946E000E956E150E966E580E976EBB
:10021000100E986E896A8A6A8B6A8C6A8D6A8E6AF9
:100220008F6A859E33A203D0818E829A02D0819EEE
:10023000828A828846EF03F0EA6A7F0EE96EEF5009
:100240000DE00A0E016E006A002EFED7012EFBD7CC
:100250005F0E006E002EFED7EF2EF3D71200080EB1
:10026000016E00D08E94979400D0000076378E9661
:10027000D8B09786D8A09796978485A4FED7012EEC
:10028000F0D700D08E9497940000978600D000009D
:1002900000D00000978485A4FED7016A00D000003A
:1002A00085B601808E9497948E96979612009786C5
:1002B00000D0978400D000008E96979600D08E9440
:1002C0009794350E006E002EFED74E0E766FC7DF68
:1002D000350E006E002EFED775C076F0C0DF350EED
:1002E000006E002EFED797960000978485A4FED757
:1002F00000D000D00000978600D0350E006E002E92
:10030000FED7120033A405D0745104090809746F94
:1003100001D0748574C075F0CADF040E745F74C0B8
:1003200075F0C5DF1200746BEDDF100E746FEADF3D
:10033000020E7F6F81DF1200C80E7F6F7DDF746B4E
:10034000E1DF100E746FDEDF746BDCDF746BDADFFD
:10035000100E746FD7DF300E746FD4DF300E746FF1
:10036000D1DF300E746FCEDF200E746FCBDF200E26
:10037000746FC8DF800E746FC5DF746BC3DFC00E8F
:10038000746FC0DF746BBEDF600E746FBBDFCBDFDA
:100390004EEF03F07351010A07E0030A08E0010A77
:1003A00009E0070A0AE00CD0800E676F0CD0C00E7F
:1003B000676F09D0940E676F06D0D40E676F03D0B5
:1003C000800E676F00D0010E725D67276751F00BDA
:1003D000686F68C074F096DF67510F0B686F683BF9
:1003E000F00E681768C074F08DDF120070510C0AAF
:1003F00009E00D0A09E0030A0CE0010A10E0070A0F
:1004000014E019D090DF29D0010E726F736FC2DF34
:1004100024D0010E726F020E736FBCDF1ED0010E6E
:10042000726F030E736FB6DF18D0010E726F040E79
:10043000736FB0DF12D07051F00B716F718171C0AA
:1004400074F060DF70510F0B716F713BF00E71171C
:10045000718171C074F056DF00D012000900F552AE
:100460000CE0F6CF6EF0F7CF6FF0F5CF70F0BEDF97
:100470006EC0F6FF6FC0F7FFF1D777EF03F0020E03
:100480006F5F0BE3EA6A6F0EE96EEF5006E003D090
:1004900000D000D00000EF2EFBD71200859E0A0E80
:1004A0007F6FCADE800E946E82968284716F726B4B
:1004B000736B746B756B766B776B786B1FC079F0B1
:1004C00021C07AF020C07BF0630E7C6F4F0E7D6FF1
:1004D00033A204D0D8901E347E6F04D0D8901E343E
:1004E00001097E6F6E6B6E510D081BE3036A6E513E
:1004F000710FE96E000E0320EA6EEFCF70F06F6BA4
:100500006F5107080CE370AF829270BF82828180C6
:10051000818081908190D89070376F2BF1D76E2BAE
:10052000E2D78296829433B204D0820E946E828691
:1005300082949FEF03F07651016A755D03E275C006
:1005400000F00CD0006A080E776F753700367651D0
:10055000005CD8B0006E0136772FF7D71200200E5E
:1005600070A9300E716F6FC000F06FAF08D0001E21
:10057000002A00C06FF02D0E716F708F70810150D6
:100580006FC075F0640E766FD6DF00C06FF0300E6E
:100590000124726F6FC075F00A0E766FCCDF300EDB
:1005A0000024746F300E0124736F71C000F0300EA0
:1005B000725D04E0708370BF708512D071C072F0FC
:1005C000200E716F300E735D04E0708170BF708318
:1005D00007D0D8A4708104E172C073F0200E726F4E
:1005E00070B505D070B307D070B109D00CD071517F
:1005F0009EA8FED7AD6E72519EA8FED7AD6E735108
:100600009EA8FED7AD6E74519EA8FED7AD6E1200A7
:100610000900F5520DE0F6CF6EF0F7CF6FF0F55010
:100620009EA8FED7AD6E6EC0F6FF6FC0F7FFF0D785
:100630001200F86AD09E078EFE0E006E030E016E49
:10064000020EE96E000EEA6EEE6A002EFDD7012E54
:10065000FBD7EA6AE96A700ED36E400E9B6ED350E8
:10066000196A7E86400EAF6E030E7F6EA60EAC6ECC
:10067000900EAB6E338233846A6BC150C00B0F098E
:10068000C16E070EB46E686B339290D5040E6E6F18
:10069000FA0E7F6FD1DD6E2FFBD74ED6F188F08832
:1006A000F28A9D8A85806C6B6B6B6C5316E16B5183
:1006B0000F0813E3220E6B25E96E000E6C21EA6E23
:1006C000200EEF6E440E6B25E96E000E6C21EA6E73
:1006D000EF6A6B2BD8B46C2BE8D7040E726F010E47
:1006E000736F58DE9C0EF66E010EF76EB7D66C6B0C
:1006F0006B6B6C5317E16B51630814E38590020E2A
:100700006E6FFA0E6F6FBBDE6E2FFBD78580020E09
:100710006E6FFA0E6F6FB3DE6E2FFBD76B2BD8B4F4
:100720006C2BE7D7040E6E6FFA0E7F6F85DD6E2F90
:10073000FBD70C0E706F5ADE81EC0DF0AFD6C00EF9
:10074000F2126C6B010E6B6F6C5314E16B51050868
:1007500011E3440E6B25E96E000E6C21EA6EEFCFBB
:100760006EF06EC06FF0180E706FF9DE6B2BD8B4A0
:100770006C2BEAD7A40EF66E010EF76E49DF6C6B98
:10078000060E6B6F6C532BE16B510F0828E36B5116
:10079000090814E16C5312E1440E6B25E96E000E5A
:1007A0006C21EA6EEFCF6EF05F0E9EA8FED7AD6EA5
:1007B0006EC06FF0180E706FD2DE0DD0440E6B2538
:1007C000E96E000E6C21EA6EEFCF6EF06EC06FF036
:1007D000180E706FC4DE6B2BD8B46C2BD3D7A80E59
:1007E000F66E010EF76E14DF3394ABD703000000F2
:1007F00000000000000000000000000000000000F9
:1008000000000000000000000000000000000000E8
:1008100000000000000000000000000000000000D8
:1008200000000000000000000000000000000000C8
:101B00000000500E1E6EAA0E1F6E550E206E1F5046
:101B100020181E18216E1FC054F021C055F020C09F
:101B200056F012000000000000000000000000005D
:101B300000000000000000000000000000000000A5
:101B40000000000000000000000000000000000095
:101B50000000000000000000000000000000000085
:101B60000000000000000000000000000000000075
:020000040030CA
:0E0000000008180CC301800000000000010081
:00000001FF
