:1000000091EF02F000000000046ED8CF05F0E0CFC1
:1000100006F00001E9CF0CF0EACF07F0E1CF08F0DD
:10002000E2CF09F0D9CF0AF0DACF0BF0F3CF12F01C
:10003000F4CF13F0FACF14F0F5CF15F0F6CF16F099
:10004000F7CF17F000C00EF001C00FF002C010F0A3
:1000500003C011F0F2AA30EF00F0F2B484EF00F028
:10006000F0A836EF00F0F0B2A0EF00F09DAA3CEF50
:1000700000F09EBA6FEF00F00EC000F00FC001F06C
:1000800010C002F011C003F00CC0E9FF07C0EAFF86
:10009000078E08C0E1FF09C0E2FF0AC0D9FF0BC00C
:1000A000DAFF12C0F3FF13C0F4FF14C0FAFF15C04B
:1000B000F5FF16C0F6FF17C0F7FF045006C0E0FFBB
:1000C00005C0D8FF10009EAAFED7ABCF19F0AECF67
:1000D00001F019A202D0AB98AB8870EF00F0F3D713
:1000E00001C06AF0036A6B51220FE96E000E032013
:1000F000EA6E6AC0EFFF6B2B6A510D0802E16B6B71
:1001000033809E9A3CEF00F0652BD8B4662B665383
:1001100005E16551630802E3828001D08290665157
:10012000020807E2FF0A03E16551E70802E2666B95
:10013000656BD76A050ED66EF294F2943CEF00F030
:10014000820E946E8190826B82510E081AE3816B4D
:10015000815107080BE3D8906437649182B26481BF
:100160008180818081908190812BF2D7036A8251B6
:10017000440FE96E000E0320EA6E64C0EFFF822B8D
:10018000E3D7006A81BC002A010E001A00A0819CFE
:1001900000B0818CF092F0923CEF00F0454C46416B
:1001A00054454B0049443A00D190C150C00B0F094F
:1001B000C16EC290B098C69A010EC66E000EC76E90
:1001C000C30ED56ECD6A000ECA6E000ECB6EB16A3C
:1001D000070EB46E9750976E1A0E006E002EFED763
:1001E0000000B450A19CB56AD26A700ED36E400E66
:1001F0009B6ED350000E926E240E936E800E946E02
:10020000000E956E150E966E580E976E100E986E27
:10021000896A8A6A8B6A8C6A8D6A8E6A8F6A859E01
:10022000818E829A8288BDEF02F0EA6A800EE96EC2
:10023000EF500DE00A0E016E006A002EFED7012E6F
:10024000FBD75F0E006E002EFED7EF2EF3D7120005
:10025000080E016E00D08E94979400D0000077377E
:100260008E96D8B09786D8A09796978485A4FED707
:10027000012EF0D700D08E9497940000978600D07E
:10028000000000D00000978485A4FED7016A00D04A
:10029000000085B601808E9497948E9697961200F2
:1002A000978600D0978400D000008E96979600D055
:1002B0008E949794350E006E002EFED74E0E776FFB
:1002C000C7DF350E006E002EFED776C077F0C0DF98
:1002D000350E006E002EFED797960000978485A4F9
:1002E000FED700D000D00000978600D0350E006EFB
:1002F000002EFED7120033A405D075510409080959
:10030000756F01D0758575C076F0CADF040E755F14
:1003100075C076F0C5DF1200756BEDDF100E756FDE
:10032000EADF020E806F81DF1200C80E806F7DDF72
:10033000756BE1DF100E756FDEDF756BDCDF756BE3
:10034000DADF100E756FD7DF300E756FD4DF300E29
:10035000756FD1DF300E756FCEDF200E756FCBDF7E
:10036000200E756FC8DF800E756FC5DF756BC3DF3C
:10037000C00E756FC0DF756BBEDF600E756FBBDFC3
:10038000CBDFC1EF02F07451010A07E0030A08E075
:10039000010A09E0070A0AE00CD0800E686F0CD051
:1003A000C00E686F09D0940E686F06D0D40E686FC7
:1003B00003D0800E686F00D0010E735D682768510E
:1003C000F00B696F69C075F096DF68510F0B696FAC
:1003D000693BF00E691769C075F08DDF120071512D
:1003E0000C0A09E00D0A09E0030A0CE0010A10E01A
:1003F000070A14E019D090DF29D0010E736F746FD3
:10040000C2DF24D0010E736F020E746FBCDF1ED0EA
:10041000010E736F030E746FB6DF18D0010E736F89
:10042000040E746FB0DF12D07151F00B726F7281D5
:1004300072C075F060DF71510F0B726F723BF00E7E
:100440007217728172C075F056DF00D01200090079
:10045000F5520CE0F6CF6FF0F7CF70F0F5CF71F0FA
:10046000BEDF6FC0F6FF70C0F7FFF1D71200020EBB
:10047000705F0BE3EA6A700EE96EEF5006E003D09E
:1004800000D000D00000EF2EFBD71200859E0A0E90
:10049000806FCBDE800E946E82968284780E726FAF
:1004A000736B746B756B766B776B786B796B1FC046
:1004B0007AF021C07BF020C07CF0630E7D6F4F0E80
:1004C0007E6F33A204D0D8901E347F6F04D0D890B2
:1004D0001E3401097F6F6F6B6F510D081BE3036AB8
:1004E0006F51720FE96E000E0320EA6EEFCF71F0CC
:1004F000706B705107080CE371AF829271BF8282FA
:100500008180818081908190D8907137702BF1D754
:100510006F2BE2D782968294820E946E82868294AA
:100520001200F86AD09E078EFE0E006E030E016E5A
:10053000020EE96E000EEA6EEE6A002EFDD7012E65
:10054000FBD7EA6AE96A700ED36E400E9B6ED350F9
:10055000196A7E86400EAF6E030E7F6EA60EAC6EDD
:10056000900EAB6E338233846B6BC150C00B0F099E
:10057000C16E070EB46E696B17D6640E806F55DEC0
:10058000D4D6F188F098F28A9D8A85806D6B6C6B69
:100590006D530FE16C510F080CE3220E6C25E96ED0
:1005A000000E6D21EA6E200EEF6E6C2BD8B46D2B11
:1005B000EFD7040E736F010E746FE5DE9C0EF66EBE
:1005C000010EF76E44DF6D6B6C6B6D5317E16C5170
:1005D000630814E38590020E6F6FFA0E706F47DFA9
:1005E0006F2FFBD78580020E6F6FFA0E706F3FDFA3
:1005F0006F2FFBD76C2BD8B46D2BE7D7040E6F6F22
:10060000FA0E806F12DE6F2FFBD70C0E716FE7DED4
:1006100033823CDFC00EF21233A05DD03384848A73
:1006200081EC0DF033DF6D6B6C6B6D5317E16C512A
:10063000630814E38590020E6F6FFA0E706F17DF78
:100640006F2FFBD78580020E6F6FFA0E706F0FDF72
:100650006F2FFBD76C2BD8B46D2BE7D70C0E716FB7
:10066000BEDE010E736F746F8EDEA40EF66E010E89
:10067000F76EEDDE6D6B6C6B6D531DE16C510F0809
:100680001AE3010E6C256F6F000E6D21706F6FC045
:1006900073F0020E746F77DE220E6C25E96E000E89
:1006A0006D21EA6EEFCF6FF06FC071F098DE6C2BAA
:1006B000D8B46D2BE1D7849A040E6F6FFA0E806F59
:1006C000B4DD6F2FFBD7010E736F020E746F5BDE0C
:1006D0000C0E716F84DE33949FD70300000000007E
:1006E000000000000000000000000000000000000A
:1006F00000000000000000000000000000000000FA
:1007000000000000000000000000000000000000E9
:1007100000000000000000000000000000000000D9
:101B00000000500E1E6EAA0E1F6E550E206E1F5046
:101B100020181E18216E1FC053F021C054F020C0A1
:101B200055F012000000000000000000000000005E
:101B300000000000000000000000000000000000A5
:101B40000000000000000000000000000000000095
:101B50000000000000000000000000000000000085
:101B60000000000000000000000000000000000075
:020000040030CA
:0E0000000008180CC301800000000000010081
:00000001FF
