:1000000075EF09F000000000046ED8CF05F0E0CFD6
:1000100006F00001E9CF0CF0EACF07F0E1CF08F0DD
:10002000E2CF09F0D9CF0AF0DACF0BF0F3CF12F01C
:10003000F4CF13F0FACF14F0F5CF15F0F6CF16F099
:10004000F7CF17F000C00EF001C00FF002C010F0A3
:1000500003C011F0F2AA30EF00F0F2B484EF00F028
:10006000F0A836EF00F0F0B2A0EF00F09DAA3CEF50
:1000700000F09EBA6FEF00F00EC000F00FC001F06C
:1000800010C002F011C003F00CC0E9FF07C0EAFF86
:10009000078E08C0E1FF09C0E2FF0AC0D9FF0BC00C
:1000A000DAFF12C0F3FF13C0F4FF14C0FAFF15C04B
:1000B000F5FF16C0F6FF17C0F7FF045006C0E0FFBB
:1000C00005C0D8FF10009EAAFED7ABCF19F0AECF67
:1000D00001F019A202D0AB98AB8870EF00F0F3D713
:1000E00001C084F0036A8551220FE96E000E0320DF
:1000F000EA6E84C0EFFF852B84510D0802E1856B09
:1001000044809E9A3CEF00F0782BD8B4792B795339
:1001100005E17851630802E3828001D08290795131
:10012000020807E2FF0A03E17851E70802E2796B6F
:10013000786BD76A050ED66EF294F2943CEF00F01D
:10014000820E946E8190AB6BAB510F081AE3AA6BD1
:10015000AA5107080BE3D8907737779182B277815D
:100160008180818081908190AA2BF2D7036AAB5164
:10017000560FE96E000E0320EA6E77C0EFFFAB2B3F
:10018000E3D7006A81BC002A010E001A00A0819CFE
:1001900000B0818CF092F0923CEF00F04453333287
:1001A0003331205254430000446174653A202530B5
:1001B00032752F253032752F253032752000546569
:1001C0006D703A2025322E32672743200000546993
:1001D0006D653A20253032753A253032753A253032
:1001E000327520504D20000054696D653A2025304D
:1001F00032753A253032753A2530327520414D201E
:10020000000054696D653A20253032753A25303248
:10021000753A25303275202020202000454C46417B
:1002200054454B0049443A00D190C150C00B0F09CE
:10023000C16EC290B098C69A010EC66E000EC76E0F
:10024000C30ED56ECD6A000ECA6E000ECB6EB16ABB
:10025000070EB46E9750976E1A0E006E002EFED7E2
:100260000000B450A19CB56AD26A700ED36E400EE5
:100270009B6ED350000E926E240E936E800E946E81
:10028000000E956E150E966E580E976E100E986EA7
:10029000896A8A6A8B6A8C6A8D6A8E6A8F6A859E81
:1002A000818E829A8288B1EF09F0EA6A9C0EE96E2B
:1002B000EF500DE00A0E016E006A002EFED7012EEF
:1002C000FBD75F0E006E002EFED7EF2EF3D7120085
:1002D000080E016E00D08E94979400D00000A037D5
:1002E0008E96D8B09786D8A09796978485A4FED787
:1002F000012EF0D700D08E9497940000978600D0FE
:10030000000000D00000978485A4FED7016A00D0C9
:10031000000085B601808E9497948E969796120071
:10032000978600D0978400D000008E96979600D0D4
:100330008E949794D00EA06FCBDF89C0A0F0C8DF59
:100340008AC0A0F0C5DF97960000978485A4FED7E9
:1003500000D000D00000978600D012000E0E896FEA
:100360008A6BDEDF0F0E896F080E8A6FD9DFB7EF59
:1003700009F0978600D0978400D000008E9697965B
:1003800000D08E949794350E006E002EFED74E0E40
:10039000A06F9EDF350E006E002EFED79FC0A0F02E
:1003A00097DF350E006E002EFED7979600009784DB
:1003B00085A4FED700D000D00000978600D0350E6F
:1003C000006E002EFED7120044A405D09E510409F1
:1003D00008099E6F01D09E859EC09FF0CADF040E63
:1003E0009E5F9EC09FF0C5DF12009E6BEDDF100E7A
:1003F0009E6FEADF020E9C6F58DF1200C80E9C6FE2
:1004000054DF9E6BE1DF100E9E6FDEDF9E6BDCDF44
:100410009E6BDADF100E9E6FD7DF300E9E6FD4DF3B
:10042000300E9E6FD1DF300E9E6FCEDF200E9E6F9E
:10043000CBDF200E9E6FC8DF800E9E6FC5DF9E6BE8
:10044000C3DFC00E9E6FC0DF9E6BBEDF600E9E6F6F
:10045000BBDFCBDFB9EF09F09D51010A07E0030ACA
:1004600008E0010A09E0070A0AE00CD0800E7B6F61
:100470000CD0C00E7B6F09D0940E7B6F06D0D40ECB
:100480007B6F03D0800E7B6F00D0010E9C5D7B27BD
:100490007B51F00B7C6F7CC09EF096DF7B510F0B85
:1004A0007C6F7C3BF00E7C177CC09EF08DDF1200D1
:1004B0009A510C0A09E00D0A09E0030A0CE0010A4E
:1004C00010E0070A14E019D090DF29D0010E9C6FCC
:1004D0009D6FC2DF24D0010E9C6F020E9D6FBCDFAA
:1004E0001ED0010E9C6F030E9D6FB6DF18D0010E5B
:1004F0009C6F040E9D6FB0DF12D09A51F00B9B6F72
:100500009B819BC09EF060DF9A510F0B9B6F9B3BC2
:10051000F00E9B179B819BC09EF056DF00D012000F
:100520000900F5520CE0F6CF89F0F7CF8AF0F5CF4D
:100530009AF0BEDF89C0F6FF8AC0F7FFF1D712003C
:10054000020E8B5F0BE3EA6A8B0EE96EEF5006E05A
:1005500003D000D000D00000EF2EFBD71200080E11
:10056000936F00C094F0978600D00000978485A414
:10057000FED785B6D88085A6D890013600D097944E
:100580008E94932FF0D7978600D000008E969451CA
:10059000D8A497960000978485A4FED700D08E94A7
:1005A000979400D000008E969796F9EF02F0916B29
:1005B000978600D0978400D000008E96979600D042
:1005C0008E949794D00EA06F83DE90C0A0F080DE52
:1005D000978600D0978400D0000085A4FED78E9621
:1005E000979600D08E949794D10EA06F71DE006A1A
:1005F000B6D701C091F097960000978485A4FED7E6
:1006000000D000D00000978600D091C001F0120009
:1006100090510F0B916F9051F00B006E003A0F0E3E
:10062000001600500A0DF3509125016E1200000EC5
:1006300044B6010E896F89C08AF08B6B906BB7DF6F
:1006400001C07DF07DC090F0E3DF01C07DF0010EC0
:10065000906FADDF01C07EF07EC090F0D9DF01C0A9
:100660007EF08A51010A01E01ED0020E906F9FDFDA
:1006700001C08BF0200E8B1744988B39006E00322E
:10068000070E001600C001F000A001D04488020E41
:10069000906F8DDF01501F0B7F6F7FC090F0B8DF30
:1006A00001C07FF00CD0020E906F81DF01503F0B34
:1006B0007F6F7FC090F0ACDF01C07FF000D0060EEE
:1006C000906F75DF01C083F083C090F0A1DF01C09F
:1006D00083F0050E906F6BDF01501F0B826F82C09D
:1006E00090F096DF01C082F0040E906F60DF015041
:1006F0003F0B816F81C090F08BDF01C081F0030E52
:10070000906F55DF0150070B806F80C090F080DF45
:1007100001C080F012000900F6CF8EF0F7CF8FF005
:10072000F5CF9AF0C5DE8EC0F6FF8FC0F7FF8D2F94
:10073000F2D712009051016A8F5D03E28FC000F082
:100740000CD0006A080E916F8F3700369051005C14
:10075000D8B0006E0136912FF7D71200015089C032
:100760008FF0640E906FE6DF00C089F00150300E0C
:1007700007E18AA30CD08AB70AD08AB9200E03D029
:100780008A978A998A81012601C09AF091DE89C0F0
:100790008FF00A0E906FCEDF00C089F00150300E4E
:1007A00006E18AB708D08AA106D08AB9200E0126B0
:1007B00001C09AF07DDE300E892789C09AF078DE7C
:1007C00012008E0E006E90C001F08FC002F0036A1E
:1007D000015209E102C001F0026A080E005E0152F6
:1007E00002E1006A08D0D89001BE04D0023601367A
:1007F0000006F9D7019EEAEF05F09A51D8B471D0FE
:10080000006E9E51D8B46DD0002604E3810E002600
:1008100068E204D07F0E005E64E363E09BC0A2F058
:100820009F51A21B9B8F9F8F9D51A103F4CFA4F0DA
:100830009C51A003F4CF03F0F3CFA3F0A103F35036
:10084000A427F450A323000E03229D51A003F350CC
:10085000A427F450A323000E026A032202229B5114
:10086000A103F350A327F4500322000E02229B5150
:10087000A003F3500326F4500222000E016A012265
:100880009D519F03F350A327F4500322000E022230
:1008900001229C519F03F3500326F4500222000EC4
:1008A00001229B519F03F3500226F4500122002A9B
:1008B00001BE05D0A3370336023601360006000E0E
:1008C000A3AF0AD0032A02220122015005E10250FF
:1008D00003E1035001E1002AA2BF018EA2AF019EF5
:1008E00004D0006A016A026A036A12008E0E006E6A
:1008F00090C001F08FC002F0036A90AF05D0011ED6
:10090000021E022A01E1012A015209E102C001F09E
:10091000026A080E005E015202E1006A0AD0D89015
:1009200001BE04D0023601360006F9D790BF01D0CF
:10093000019E0EEF06F0800ED8B29F1BA46BA56B34
:100940009BC0A3F09F51A31B9A51D8B4DCD0A26FD7
:10095000006E9E51D8B4E0D0A25FD8B481D03DE300
:100960009FC0A8F0A88FA0C0A7F0A1C0A6F0A56B5B
:10097000D890A833A733A633A533A22FF8D7A3AFB7
:1009800003D0A481DDD0A491A291A489EA6A9D0E2E
:10099000E96EE9D0A499A3BF0AD0A2A113D0A833CD
:1009A000A733A633A533002AD8B4C5D00BD0A8BF2F
:1009B0000CD0D890A537A637A737A8370006D8B4EB
:1009C000BAD0F5D7A48D6BD0A49D9BC0A3F09BAFEC
:1009D00002D0A88FA9D0A89FA7D09EC0A2F09EC089
:1009E00000F09A51A25F9BC0A8F0A88F9CC0A7F00E
:1009F0009DC0A6F0A56BD890A833A733A633A53326
:100A0000A22FF8D7A3AF03D0A4839AD0A493A29126
:100A1000A48BEA6AA10EE96EA6D0A49BA3BF0AD05C
:100A2000A2A113D0A833A733A633A533002AD8B484
:100A300082D00BD0A8BF0CD0D890A537A637A73747
:100A4000A8370006D8B477D0F5D7A48F28D0A49FB4
:100A50009FC0A3F09FAF02D0A88F66D0A89F64D09C
:100A60009FC0A8F0A88FA0C0A7F0A1C0A6F0A3AF18
:100A700004D0A89FA48564D0A495A56BA291EA6A2E
:100A80009D0EE96E70D0A3BF1CD09BC0A3F0A2A1A5
:100A900006D0A833A733A633A533002A4CE0A5AF70
:100AA0000BD0A62B09E1A72B07E1A82B05E1A83362
:100AB000A733A633002A3FE0A4BD86D7A4BFC7D77B
:100AC0001CD0800EA81BA8AF04D03AD09FC0A3F0C2
:100AD0000AD09BC0A3F0A85306E1A75304E1A65394
:100AE00002E1006A21D0A8BF08D0D890A537A63768
:100AF000A737A837002EF7D71ED0A3AF02D0A88FF4
:100B000013D0A89F11D09EC000F09FC0A8F0A0C035
:100B1000A7F0A1C0A6F008D09AC000F09BC0A8F032
:100B20009CC0A7F09DC0A6F0A8C001F0A7C002F02D
:100B3000A6C003F034D0006A016A026A036A2FD0AB
:100B4000A56BA61FA71FA81FA51FA52B05E1A62BF8
:100B500003E1A72B01E1A82BA4B115D7A4B356D765
:100B6000A4B58AD7B3D7EF50A62705E3A72B03E197
:100B7000A82BD8B4A281ED52EF50A72703E3A82BEE
:100B8000D8B4A281ED52EF50EFBE01D0800AA82761
:100B9000D8B0A281A4B9FED6A4BB3FD774D71200A7
:100BA0008C6B8B6B8A6B896B8D6B8E6B120E906F5F
:100BB000FEDC01C08DF0110E906FF9DC01C08EF0EB
:100BC0008D3B8D338D33030E8D178D17906B8DC03C
:100BD0008FF0F7D503C08CF002C08BF001C08AF013
:100BE00000C089F08CC09DF08BC09CF08AC09BF047
:100BF00089C09AF0A16BA06B9F6B7D0E9E6FFDDD8F
:100C000003C08CF002C08BF001C08AF000C089F0F4
:100C1000906B8EC08FF08FBF900768D6D8928CC033
:100C20009DF08BC09CF08AC09BF089C09AF003C0F5
:100C3000A1F002C0A0F001C09FF000C09EF07BDEDA
:100C400003C08CF002C08BF001C08AF000C089F0B4
:100C500089C000F08AC001F08BC002F08CC003F0A4
:100C6000B8EF07F09A51B6089A6F036A9BC09EF0DE
:100C70009B8FD8909B339C339D33033202320132D9
:100C800000329A2FF6D79EAF0BD0001E011E021E17
:100C9000031E002AD8B4012AD8B4022AD8B4032AE1
:100CA000E0EF06F0D8B203D0EA6AA20EE96E006A5D
:100CB000016A026A036AA26BA36BA46BA56BA151C4
:100CC000A0119F119E112CE0200EA66FD8909A378C
:100CD0009B379C379D37A237A337A437A537A1513F
:100CE000A55D08E1A051A45D05E19F51A35D02E16E
:100CF0009E51A25D0FE39E51A25F9F51D8A09F3DE0
:100D0000A35FA051D8A0A03DA45FA151D8A0A13D50
:100D1000A55FD8800036013602360336A62FD6D717
:100D2000A2C0EFFFA3C0ECFFA4C0ECFFA5C0ECFF86
:100D30001200E950926F9151946F19E090C09DF0AC
:100D40008FC09CF08EC09BF08DC09AF0A16BA06B01
:100D5000200E9F6F820E9E6F50DD03C090F002C088
:100D60008FF001C08EF000C08DF0942FE7D77E0E7B
:100D7000006E016A8EBF018E026A036AD89290C02B
:100D80009DF08FC09CF08EC09BF08DC09AF003C088
:100D9000A1F002C0A0F001C09FF09E6FCCDD03C0A7
:100DA00090F002C08FF001C08EF000C08DF090C0B6
:100DB0009DF08FC09CF08EC09BF08DC09AF052D7F2
:100DC00003C090F002C08FF001C08EF000C08DF023
:100DD00090AF0DD09207928B8D1F8E1F8F1F901F8B
:100DE0008D2BD8B48E2BD8B48F2BD8B4902B3B0E30
:100DF000996F9A0E986FCA0E976F966B0A0E946F42
:100E00009151D8B4922BD882EA6A8D0EE96E90C0C7
:100E10009DF08FC09CF08EC09BF08DC09AF099C061
:100E2000A1F098C0A0F097C09FF096C09EF03ADF66
:100E3000015000520FE19129945D0CE092510CE0B9
:100E40000F0B945D01E03BE292BF39D092BD04D01C
:100E5000200E30D0200E921792AB0DD0929B915164
:100E6000D8A492070050926F2D0E9A6F58EC02F0A2
:100E70009251006E926B9151945D0BE10050926F14
:100E80002E0E9A6F58EC02F09251006E200E9217BF
:100E9000000E300E92AB0ED0929B9151D8A49207C7
:100EA0000050926F2D0E9A6F58EC02F09251006E26
:100EB000926B300E002600C09AF058EC02F0D892E7
:100EC00099C09DF098C09CF097C09BF096C09AF096
:100ED000A16BA06B9F6B0A0E9E6FE4DE03C099F0BE
:100EE00002C098F001C097F000C096F0942F8BD705
:100EF000D5EF07F07DC07AF0060E9C6F010E9D6F56
:100F00002CEC02F09C0EF66E010EF76E90EC02F0E7
:100F1000010E9C6F030E9D6F2CEC02F0A80EF66E76
:100F2000010EF76E060E8D6F8BEC03F081C089F019
:100F3000010E8A6F13DC2F0E9A6F58EC02F082C0FC
:100F400089F0010E8A6F0ADC2F0E9A6F58EC02F0BE
:100F500083C089F0010E8A6F01DC200E9A6F58EC75
:100F600002F0010E9C6F040E9D6F2CEC02F018D65F
:100F700000C089F001C08AF002C08BF003C08CF081
:100F8000BE0EF66E010EF76E060E8D6F8BEC03F043
:100F9000890EE96E8CC090F08BC08FF08AC08EF005
:100FA00089C08DF0020E916FC4D6270E9A6F58EC4F
:100FB00002F0430E9A6F58EC02F0200E9A6F58EC34
:100FC00002F0010E9C6F020E9D6F2CEC02F0000EE1
:100FD00044B6010E010A01E05DD0000E44B8010ED6
:100FE000010A01E02BD0CE0EF66E010EF76E060E52
:100FF0008D6F8BEC03F07FC089F0010E8A6FAEEC31
:1010000003F03A0E9A6F58EC02F07EC089F0010EA0
:101010008A6FAEEC03F03A0E9A6F58EC02F07DC086
:1010200089F0010E8A6FAEEC03F0E20EF66E010E4F
:10103000F76E040E8D6F8BEC03F02BD0E80EF66E7E
:10104000010EF76E060E8D6F8BEC03F07FC089F0FA
:10105000010E8A6FAEEC03F03A0E9A6F58EC02F074
:101060007EC089F0010E8A6FAEEC03F03A0E9A6FE3
:1010700058EC02F07DC089F0010E8A6FAEEC03F0EF
:10108000FC0EF66E010EF76E040E8D6F8BEC03F006
:1010900000D02BD0020EF66E020EF76E060E8D6F8C
:1010A0008BEC03F07FC089F0010E8A6FAEEC03F089
:1010B0003A0E9A6F58EC02F07EC089F0010E8A6FEA
:1010C000AEEC03F03A0E9A6F58EC02F07DC089F056
:1010D000010E8A6FAEEC03F0160EF66E020EF76E7E
:1010E000050E8D6F8BEC03F000D01200859E0A0E6A
:1010F0009C6F55EC01F0800E696F6A6B6B6B6C6BCB
:101100006D6B6E6B6F6B706B1FC071F021C072F0F6
:1011100020C073F0630E746F4F0E756FD8901E343D
:10112000766F829682840D0E006E002EFED7896B3C
:1011300089510D081BE3036A8951690FE96E000E9E
:101140000320EA6EEFCF8BF08A6B8A5107080CE31D
:101150008BAF82928BBF82828180818081908190CF
:10116000D8908B378A2BF1D7892BE2D7829682943D
:101170001200200E8AA9300E8B6F89C000F089AF53
:1011800008D0001E002A00C089F02D0E8B6F8A8FB8
:101190008A81015089C08FF0640E906F9AEC03F041
:1011A00000C089F0300E01248C6F89C08FF00A0EC8
:1011B000906F9AEC03F0300E00248E6F300E0124F5
:1011C0008D6F8BC000F0300E8C5D04E08A838ABF87
:1011D0008A8512D08BC08CF0200E8B6F300E8D5D07
:1011E00004E08A818ABF8A8307D0D8A48A8104E177
:1011F0008CC08DF0200E8C6F8AB505D08AB307D0D5
:101200008AB109D00CD08BC09AF058EC02F08CC097
:101210009AF058EC02F08DC09AF058EC02F08EC0B3
:101220009AF058EC02F0C2EF0AF08288030E9C6F2D
:1012300055EC01F0828682940D0E006E002EFED7D2
:10124000896B895102081BE3036A8951660FE96EB5
:10125000000E0320EA6EEFCF45F08A6B8A51070833
:101260000CE345AE829245BE82828180818081906E
:101270008190D89045368A2BF1D7892BE2D7896B9C
:1012800089510F081BE3036A8951460FE96E000E6E
:101290000320EA6EEFCF45F08A6B8A5107080CE312
:1012A00045AE829245BE828281808180819081900C
:1012B000D89045368A2BF1D7892BE2D7858E0D0E33
:1012C000006E002EFED782928296020E9C6F55EC25
:1012D00001F0C80E8B6FA0EC02F0859E82980D0E77
:1012E0009C6F55EC01F0CBEF0AF0F86AD09E078EA8
:1012F000FE0E006E030E016E020EE96E000EEA6E27
:10130000EE6A002EFDD7012EFBD7EA6AE96A700E5D
:10131000D36E400E9B6ED350196A7E86400EAF6E20
:10132000030E7F6EA60EAC6E900EAB6E44824484AC
:101330007D6B1A0E7E6F090E7F6F020E806F080E96
:10134000816F070E826F0F0E836F44964488856B02
:10135000C150C00B0F09C16E070EB46E7C6B14EF49
:1013600001F0640E9C6F55EC01F0AEEF01F0FEEF62
:1013700001F0F188F098F28A9D8A8580876B866BF0
:1013800087530FE186510F080CE3220E8625E96E84
:10139000000E8721EA6E200EEF6E862BD8B4872BC5
:1013A000EFD7040E9C6F010E9D6F2CEC02F01C0E0B
:1013B000F66E020EF76E90EC02F0876B866B875329
:1013C00019E18651630816E38590020E896FFA0EC3
:1013D0008B6FA0EC02F0892FFAD78580020E896FFF
:1013E000FA0E8B6FA0EC02F0892FFAD7862BD8B4B7
:1013F000872BE5D7040E896FFA0E9C6F55EC01F030
:10140000892FFAD70C0E9A6F58EC02F0448217EC31
:1014100003F070DD76DB6ADEC00EF21244A0BCD0B1
:101420004484848A6EDB62DE876B866B875319E1A6
:101430008651630816E38590020E896FFA0E8B6F52
:10144000A0EC02F0892FFAD78580020E896FFA0E80
:101450008B6FA0EC02F0892FFAD7862BD8B4872B9C
:10146000E5D70C0E9A6F58EC02F0010E9C6F9D6F41
:101470002CEC02F0240EF66E020EF76E90EC02F0E9
:10148000876B866B87531FE186510F081CE3010EA3
:101490008625896F000E87218A6F89C09CF0020E15
:1014A0009D6F2CEC02F0220E8625E96E000E87213E
:1014B000EA6EEFCF89F089C09AF058EC02F0862BE3
:1014C000D8B4872BDFD7849A040E896FFA0E9C6FED
:1014D00055EC01F0892FFAD7010E9C6F020E9D6F1B
:1014E0002CEC02F00C0E9A6F58EC02F017EC03F0A3
:1014F000876B866B87531AE18651090817E3330E11
:101500008625016E000E8721036E220E8625E96E68
:10151000000E8721EA6E300EEF5C03C0EAFF01C0C7
:10152000E9FFEF6E862BD8B4872BE4D7466A7FC0DD
:1015300047F07EC048F081C049F082C04AF083C0C5
:101540004BF033C04CF034C04DF035C04EF037C0D6
:101550004FF038C050F039C051F03AC052F03BC0A3
:1015600053F03CC055F00C0E9A6F58EC02F0010E8F
:101570009C6F020E9D6F2CEC02F03CC089F0180E9F
:101580008A6FF7D5080E896FFA0E9C6F55EC01F043
:10159000892FFAD74AD6449017EC03F07A517D5D33
:1015A00009E0A8DC080E896FFA0E9C6F55EC01F07B
:1015B000892FFAD7449432D70300000000000000BE
:1015C000000000000000000000000000000000001B
:1015D000000000000000000000000000000000000B
:1015E00000000000000000000000000000000000FB
:1015F00000000000000000000000000000000000EB
:101B00000000500E1E6EAA0E1F6E550E206E1F5046
:101B100020181E18216E1FC066F021C067F020C07B
:101B200068F012000000000000000000000000004B
:101B300000000000000000000000000000000000A5
:101B40000000000000000000000000000000000095
:101B50000000000000000000000000000000000085
:101B60000000000000000000000000000000000075
:020000040030CA
:0E0000000008180CC301800000000000010081
:00000001FF
