:1000000022EF09F000000000046ED8CF05F0E0CF29
:1000100006F00001E9CF0CF0EACF07F0E1CF08F0DD
:10002000E2CF09F0D9CF0AF0DACF0BF0F3CF12F01C
:10003000F4CF13F0FACF14F0F5CF15F0F6CF16F099
:10004000F7CF17F000C00EF001C00FF002C010F0A3
:1000500003C011F0F2AA30EF00F0F2B484EF00F028
:10006000F0A836EF00F0F0B2A0EF00F09DAA3CEF50
:1000700000F09EBA6FEF00F00EC000F00FC001F06C
:1000800010C002F011C003F00CC0E9FF07C0EAFF86
:10009000078E08C0E1FF09C0E2FF0AC0D9FF0BC00C
:1000A000DAFF12C0F3FF13C0F4FF14C0FAFF15C04B
:1000B000F5FF16C0F6FF17C0F7FF045006C0E0FFBB
:1000C00005C0D8FF10009EAAFED7ABCF19F0AECF67
:1000D00001F019A202D0AB98AB8870EF00F0F3D713
:1000E00001C071F0036A7251220FE96E000E032005
:1000F000EA6E71C0EFFF722B71510D0802E1726B55
:1001000033809E9A3CEF00F0652BD8B4662B665383
:1001100005E16551630802E3828001D08290665157
:10012000020807E2FF0A03E16551E70802E2666B95
:10013000656BD76A050ED66EF294F2943CEF00F030
:10014000820E946E8190986B98510E081AE3976B0B
:10015000975107080BE3D8906437649182B26481A9
:100160008180818081908190972BF2D7036A98518A
:10017000440FE96E000E0320EA6E64C0EFFF982B77
:10018000E3D7006A81BC002A010E001A00A0819CFE
:1001900000B0818CF092F0923CEF00F04453333287
:1001A0003331205254430000446174653A202530B5
:1001B00032752F253032752F253032752000546569
:1001C0006D703A2025322E32672743200000546993
:1001D0006D653A20253032753A253032753A253032
:1001E000327520504D20000054696D653A2025304D
:1001F00032753A253032753A2530327520414D201E
:10020000000054696D653A20253032753A25303248
:10021000753A25303275202020202000454C46417B
:1002200054454B0049443A00D190C150C00B0F09CE
:10023000C16EC290B098C69A010EC66E000EC76E0F
:10024000C30ED56ECD6A000ECA6E000ECB6EB16ABB
:10025000070EB46E9750976E1A0E006E002EFED7E2
:100260000000B450A19CB56AD26A700ED36E400EE5
:100270009B6ED350000E926E240E936E800E946E81
:10028000000E956E150E966E580E976E100E986EA7
:10029000896A8A6A8B6A8C6A8D6A8E6A8F6A859E81
:1002A000818E829A82885EEF09F0EA6A890EE96E91
:1002B000EF500DE00A0E016E006A002EFED7012EEF
:1002C000FBD75F0E006E002EFED7EF2EF3D7120085
:1002D000080E016E00D08E94979400D000008D37E8
:1002E0008E96D8B09786D8A09796978485A4FED787
:1002F000012EF0D700D08E9497940000978600D0FE
:10030000000000D00000978485A4FED7016A00D0C9
:10031000000085B601808E9497948E969796120071
:10032000978600D0978400D000008E96979600D0D4
:100330008E949794D00E8D6FCBDF76C08DF0C8DF92
:1003400077C08DF0C5DF97960000978485A4FED70F
:1003500000D000D00000978600D012000E0E766FFD
:10036000776BDEDF0F0E766F080E776FD9DF64EFE5
:1003700009F0978600D0978400D000008E9697965B
:1003800000D08E949794350E006E002EFED74E0E40
:100390008D6F9EDF350E006E002EFED78CC08DF067
:1003A00097DF350E006E002EFED7979600009784DB
:1003B00085A4FED700D000D00000978600D0350E6F
:1003C000006E002EFED7120033A405D08B51040915
:1003D00008098B6F01D08B858BC08CF0CADF040EAF
:1003E0008B5F8BC08CF0C5DF12008B6BEDDF100EC6
:1003F0008B6FEADF020E896F58DF1200C80E896F1B
:1004000054DF8B6BE1DF100E8B6FDEDF8B6BDCDF7D
:100410008B6BDADF100E8B6FD7DF300E8B6FD4DF74
:10042000300E8B6FD1DF300E8B6FCEDF200E8B6FD7
:10043000CBDF200E8B6FC8DF800E8B6FC5DF8B6B21
:10044000C3DFC00E8B6FC0DF8B6BBEDF600E8B6FA8
:10045000BBDFCBDF66EF09F08A51010A07E0030A30
:1004600008E0010A09E0070A0AE00CD0800E686F74
:100470000CD0C00E686F09D0940E686F06D0D40EF1
:10048000686F03D0800E686F00D0010E895D682709
:100490006851F00B696F69C08BF096DF68510F0BE4
:1004A000696F693BF00E691769C08BF08DDF120030
:1004B00087510C0A09E00D0A09E0030A0CE0010A61
:1004C00010E0070A14E019D090DF29D0010E896FDF
:1004D0008A6FC2DF24D0010E896F020E8A6FBCDFE3
:1004E0001ED0010E896F030E8A6FB6DF18D0010E81
:1004F000896F040E8A6FB0DF12D08751F00B886FBE
:10050000888188C08BF060DF87510F0B886F883B34
:10051000F00E8817888188C08BF056DF00D012005B
:100520000900F5520CE0F6CF76F0F7CF77F0F5CF73
:1005300087F0BEDF76C0F6FF77C0F7FFF1D7120075
:10054000020E795F0BE3EA6A790EE96EEF5006E07E
:1005500003D000D000D00000EF2EFBD71200080E11
:10056000806F00C081F0978600D00000978485A43A
:10057000FED785B6D88085A6D890013600D097944E
:100580008E94802FF0D7978600D000008E968151F0
:10059000D8A497960000978485A4FED700D08E94A7
:1005A000979400D000008E969796F9EF02F07E6B3C
:1005B000978600D0978400D000008E96979600D042
:1005C0008E949794D00E8D6F83DE7DC08DF080DE8B
:1005D000978600D0978400D0000085A4FED78E9621
:1005E000979600D08E949794D10E8D6F71DE006A2D
:1005F000B6D701C07EF097960000978485A4FED7F9
:1006000000D000D00000978600D07EC001F012001C
:100610007D510F0B7E6F7D51F00B006E003A0F0E77
:10062000001600500A0DF3507E25016E1200000ED8
:1006300033B6010E766F76C077F0786B7D6BB7DFDF
:1006400001C06AF06AC07DF0E3DF01C06AF0010E0C
:100650007D6FADDF01C06BF06BC07DF0D9DF01C0F5
:100660006BF07751010A01E01ED0020E7D6F9FDF13
:1006700001C078F0200E781733987839006E003278
:10068000070E001600C001F000A001D03388020E52
:100690007D6F8DDF01501F0B6C6F6CC07DF0B8DF7C
:1006A00001C06CF00CD0020E7D6F81DF01503F0B5A
:1006B0006C6F6CC07DF0ACDF01C06CF000D0060E3A
:1006C0007D6F75DF01C070F070C07DF0A1DF01C0EB
:1006D00070F0050E7D6F6BDF01501F0B6F6F6FC0E9
:1006E0007DF096DF01C06FF0040E7D6F60DF01507A
:1006F0003F0B6E6F6EC07DF08BDF01C06EF0030E9E
:100700007D6F55DF0150070B6D6F6DC07DF080DF91
:1007100001C06DF012000900F6CF7BF0F7CF7CF03E
:10072000F5CF87F0C5DE7BC0F6FF7CC0F7FF7A2FE0
:10073000F2D712007951016A785D03E278C000F0C7
:100740000CD0006A080E7A6F783700367951005C59
:10075000D8B0006E01367A2FF7D71200015076C05C
:1007600078F0640E796FE6DF00C076F00150300E4D
:1007700007E177A30CD077B70AD077B9200E03D062
:10078000779777997781012601C087F091DE76C04F
:1007900078F00A0E796FCEDF00C076F00150300E8F
:1007A00006E177B708D077A106D077B9200E0126E9
:1007B00001C087F07DDE300E762776C087F078DEC8
:1007C00012008E0E006E7DC001F07CC002F0036A44
:1007D000015209E102C001F0026A080E005E0152F6
:1007E00002E1006A08D0D89001BE04D0023601367A
:1007F0000006F9D7019EEAEF05F08751D8B471D011
:10080000006E8B51D8B46DD0002604E3810E002613
:1008100068E204D07F0E005E64E363E088C08FF07E
:100820008C518F1B888F8C8F8A518E03F4CF91F05F
:1008300089518D03F4CF03F0F3CF90F08E03F35082
:100840009127F4509023000E03228A518D03F35018
:100850009127F4509023000E026A0322022288514D
:100860008E03F3509027F4500322000E0222885189
:100870008D03F3500326F4500222000E016A012278
:100880008A518C03F3509027F4500322000E022269
:10089000012289518C03F3500326F4500222000EEA
:1008A000012288518C03F3500226F4500122002AC1
:1008B00001BE05D090370336023601360006000E21
:1008C00090AF0AD0032A02220122015005E1025012
:1008D00003E1035001E1002A8FBF018E8FAF019E1B
:1008E00004D0006A016A026A036A12008E0E006E6A
:1008F0007DC001F07CC002F0036A7DAF05D0011E0F
:10090000021E022A01E1012A015209E102C001F09E
:10091000026A080E005E015202E1006A0AD0D89015
:1009200001BE04D0023601360006F9D77DBF01D0E2
:10093000019E0EEF06F0800ED8B28C1B916B926B6D
:1009400088C090F08C51901B8751D8B4DCD08F6F49
:10095000006E8B51D8B4E0D08F5FD8B481D03DE326
:100960008CC095F0958F8DC094F08EC093F0926BF3
:10097000D89095339433933392338F2FF8D790AF29
:1009800003D09181DDD091918F919189EA6A8A0E8D
:10099000E96EE9D0919990BF0AD08FA113D0953319
:1009A000943393339233002AD8B4C5D00BD095BF7B
:1009B0000CD0D89092379337943795370006D8B437
:1009C000BAD0F5D7918D6BD0919D88C090F088AF4B
:1009D00002D0958FA9D0959FA7D08BC08FF08BC0E8
:1009E00000F087518F5F88C095F0958F89C094F093
:1009F0008AC093F0926BD8909533943393339233AB
:100A00008F2FF8D790AF03D091839AD091938F9185
:100A1000918BEA6A8E0EE96EA6D0919B90BF0AD0A8
:100A20008FA113D09533943393339233002AD8B4E3
:100A300082D00BD095BF0CD0D89092379337943793
:100A400095370006D8B477D0F5D7918F28D0919FED
:100A50008CC090F08CAF02D0958F66D0959F64D0FB
:100A60008CC095F0958F8DC094F08EC093F090AFB0
:100A700004D0959F918564D09195926B8F91EA6A8D
:100A80008A0EE96E70D090BF1CD088C090F08FA104
:100A900006D09533943393339233002A4CE092AFCF
:100AA0000BD0932B09E1942B07E1952B05E19533AE
:100AB00094339333002A3FE091BD86D791BFC7D7C7
:100AC0001CD0800E951B95AF04D03AD08CC090F00E
:100AD0000AD088C090F0955306E1945304E19353F3
:100AE00002E1006A21D095BF08D0D89092379337A1
:100AF00094379537002EF7D71ED090AF02D0958F40
:100B000013D0959F11D08BC000F08CC095F08DC094
:100B100094F08EC093F008D087C000F088C095F0A4
:100B200089C094F08AC093F095C001F094C002F09F
:100B300093C003F034D0006A016A026A036A2FD0BE
:100B4000926B931F941F951F921F922B05E1932B7D
:100B500003E1942B01E1952B91B115D791B356D7B1
:100B600091B58AD7B3D7EF50932705E3942B03E1D0
:100B7000952BD8B48F81ED52EF50942703E3952B3A
:100B8000D8B48F81ED52EF50EFBE01D0800A952787
:100B9000D8B08F8191B9FED691BB3FD774D71200E0
:100BA000796B786B776B766B7A6B7B6B120E7D6FE4
:100BB000FEDC01C07AF0110E7D6FF9DC01C07BF024
:100BC0007A3B7A337A33030E7A177A177D6B7AC0C1
:100BD0007CF0F7D503C079F002C078F001C077F05F
:100BE00000C076F079C08AF078C089F077C088F0CC
:100BF00076C087F08E6B8D6B8C6B7D0E8B6FFDDD01
:100C000003C079F002C078F001C077F000C076F040
:100C10007D6B7BC07CF07CBF7D0768D6D89279C0A5
:100C20008AF078C089F077C088F076C087F003C07A
:100C30008EF002C08DF001C08CF000C08BF07BDE26
:100C400003C079F002C078F001C077F000C076F000
:100C500076C000F077C001F078C002F079C003F0F0
:100C6000B8EF07F08751B608876F036A88C08BF02A
:100C7000888FD890883389338A3303320232013225
:100C80000032872FF6D78BAF0BD0001E011E021E3D
:100C9000031E002AD8B4012AD8B4022AD8B4032AE1
:100CA000E0EF06F0D8B203D0EA6A8F0EE96E006A70
:100CB000016A026A036A8F6B906B916B926B8E5123
:100CC0008D118C118B112CE0200E936FD8908737EB
:100CD000883789378A378F379037913792378E51D7
:100CE000925D08E18D51915D05E18C51905D02E1CD
:100CF0008B518F5D0FE38B518F5F8C51D8A08C3D52
:100D0000905F8D51D8A08D3D915F8E51D8A08E3DC2
:100D1000925FD8800036013602360336932FD6D73D
:100D20008FC0EFFF90C0ECFF91C0ECFF92C0ECFFD2
:100D30001200E9507F6F7E51816F19E07DC08AF00B
:100D40007CC089F07BC088F07AC087F08E6B8D6B99
:100D5000200E8C6F820E8B6F50DD03C07DF002C0C1
:100D60007CF001C07BF000C07AF0812FE7D77E0EC7
:100D7000006E016A7BBF018E026A036AD8927DC051
:100D80008AF07CC089F07BC088F07AC087F003C00D
:100D90008EF002C08DF001C08CF08B6FCCDD03C0F3
:100DA0007DF002C07CF001C07BF000C07AF07DC015
:100DB0008AF07CC089F07BC088F07AC087F052D777
:100DC00003C07DF002C07CF001C07BF000C07AF06F
:100DD0007DAF0DD07F077F8B7A1F7B1F7C1F7D1F10
:100DE0007A2BD8B47B2BD8B47C2BD8B47D2B3B0E7C
:100DF000866F9A0E856FCA0E846F836B0A0E816FA1
:100E00007E51D8B47F2BD882EA6A7A0EE96E7DC013
:100E10008AF07CC089F07BC088F07AC087F086C0F9
:100E20008EF085C08DF084C08CF083C08BF03ADFEB
:100E3000015000520FE17E29815D0CE07F510CE0F2
:100E40000F0B815D01E03BE27FBF39D07FBD04D055
:100E5000200E30D0200E7F177FAB0DD07F9B7E51B0
:100E6000D8A47F0700507F6F2D0E876F58EC02F0DB
:100E70007F51006E7F6B7E51815D0BE100507F6F73
:100E80002E0E876F58EC02F07F51006E200E7F17F8
:100E9000000E300E7FAB0ED07F9B7E51D8A47F0713
:100EA00000507F6F2D0E876F58EC02F07F51006E5F
:100EB0007F6B300E002600C087F058EC02F0D8920D
:100EC00086C08AF085C089F084C088F083C087F02E
:100ED0008E6B8D6B8C6B0A0E8B6FE4DE03C086F01D
:100EE00002C085F001C084F000C083F0812F8BD751
:100EF000D5EF07F06AC067F0060E896F010E8A6FA2
:100F00002CEC02F09C0EF66E010EF76E90EC02F0E7
:100F1000010E896F030E8A6F2CEC02F0A80EF66E9C
:100F2000010EF76E060E7A6F8BEC03F06EC076F052
:100F3000010E776F13DC2F0E876F58EC02F06FC035
:100F400076F0010E776F0ADC2F0E876F58EC02F0F7
:100F500070C076F0010E776F01DC200E876F58ECC1
:100F600002F0010E896F040E8A6F2CEC02F018D685
:100F700000C076F001C077F002C078F003C079F0CD
:100F8000BE0EF66E010EF76E060E7A6F8BEC03F056
:100F9000890EE96E79C07DF078C07CF077C07BF077
:100FA00076C07AF0020E7E6FC4D6270E876F58EC9B
:100FB00002F0430E876F58EC02F0200E876F58EC5A
:100FC00002F0010E896F020E8A6F2CEC02F0000E07
:100FD00033B6010E010A01E05DD0000E33B8010EF8
:100FE000010A01E02BD0CE0EF66E010EF76E060E52
:100FF0007A6F8BEC03F06CC076F0010E776FAEEC7D
:1010000003F03A0E876F58EC02F06BC076F0010ED9
:10101000776FAEEC03F03A0E876F58EC02F06AC0BF
:1010200076F0010E776FAEEC03F0E20EF66E010E75
:10103000F76E040E7A6F8BEC03F02BD0E80EF66E91
:10104000010EF76E060E7A6F8BEC03F06CC076F033
:10105000010E776FAEEC03F03A0E876F58EC02F09A
:101060006BC076F0010E776FAEEC03F03A0E876F2F
:1010700058EC02F06AC076F0010E776FAEEC03F028
:10108000FC0EF66E010EF76E040E7A6F8BEC03F019
:1010900000D02BD0020EF66E020EF76E060E7A6F9F
:1010A0008BEC03F06CC076F0010E776FAEEC03F0C2
:1010B0003A0E876F58EC02F06BC076F0010E776F36
:1010C000AEEC03F03A0E876F58EC02F06AC076F08F
:1010D000010E776FAEEC03F0160EF66E020EF76E91
:1010E000050E7A6F8BEC03F000D01200859E0A0E7D
:1010F000896F55EC01F0800E946E82968284780E92
:10110000796F7A6B7B6B7C6B7D6B7E6B7F6B806B9F
:101110001FC081F021C082F020C083F0630E846F75
:101120004F0E856F33A204D0D8901E34866F04D042
:10113000D8901E340109866F766B76510D081BE33B
:10114000036A7651790FE96E000E0320EA6EEFCF45
:1011500078F0776B775107080CE378AF829278BF0D
:1011600082828180818081908190D8907837772B9E
:10117000F1D7762BE2D782968294820E946E828685
:10118000829412008288030E896F55EC01F08286EA
:1011900082940D0E006E002EFED7766B76510208FB
:1011A0001BE3036A7651530FE96E000E0320EA6ECB
:1011B000EFCF34F0776B775107080CE334AE8292AF
:1011C00034BE82828180818081908190D890343633
:1011D000772BF1D7762BE2D7766B76510E081BE38F
:1011E000036A7651350FE96E000E0320EA6EEFCFE9
:1011F00034F0776B775107080CE334AE829234BE3B
:1012000082828180818081908190D8903436772B42
:10121000F1D7762BE2D7858E0D0E006E002EFED70D
:1012200082928296040E786FC80E796FA0EC02F05D
:10123000782FFAD7859E82980D0E896F55EC01F0B4
:101240009EEF0AF0F86AD09E078EFE0E006E030E27
:10125000016E020EE96E000EEA6EEE6A002EFDD7F8
:10126000012EFBD7EA6AE96A700ED36E400E9B6EC0
:10127000D350196A7E86400EAF6E030E7F6EA60EA7
:10128000AC6E900EAB6E338233846A6B1A0E6B6F4A
:10129000090E6C6F020E6D6F080E6E6F070E6F6F8A
:1012A0000F0E706F33963388726BC150C00B0F09ED
:1012B000C16E070EB46E696B14EF01F0640E896F96
:1012C00055EC01F0AEEF01F0FEEF01F0F188F0987F
:1012D000F28A9D8A8580746B736B74530FE173512E
:1012E0000F080CE3220E7325E96E000E7421EA6EDE
:1012F000200EEF6E732BD8B4742BEFD7040E896FCA
:10130000010E8A6F2CEC02F01C0EF66E020EF76EC8
:1013100090EC02F0746B736B745319E173516308B2
:1013200016E38590020E766FFA0E796FA0EC02F04C
:10133000762FFAD78580020E766FFA0E796FA0ECC1
:1013400002F0762FFAD7732BD8B4742BE5D7040E9E
:10135000766FFA0E896F55EC01F0762FFAD70C0EE6
:10136000876F58EC02F0338217EC03F0C3DDBEDE6A
:10137000C00EF21233A0E3D03384848AC2DBB6DE1F
:10138000746B736B745319E17351630816E38590A2
:10139000020E766FFA0E796FA0EC02F0762FFAD774
:1013A0008580020E766FFA0E796FA0EC02F0762F30
:1013B000FAD7732BD8B4742BE5D70C0E876F58EC83
:1013C00002F0010E896F8A6F2CEC02F0240EF66E8B
:1013D000020EF76E90EC02F0746B736B74531FE1A6
:1013E00073510F081CE3010E7325766F000E7421F4
:1013F000776F76C089F0020E8A6F2CEC02F0220E15
:101400007325E96E000E7421EA6EEFCF76F076C098
:1014100087F058EC02F0732BD8B4742BDFD7849A82
:10142000040E766FFA0E896F55EC01F0762FFAD71D
:10143000010E896F020E8A6F2CEC02F00C0E876F82
:1014400058EC02F017EC03F0746B736B745310E1FB
:1014500073510F080DE3220E7325E96E000E7421FF
:10146000EA6E300EEF5CEF6E732BD8B4742BEED7B0
:10147000356A6CC036F06BC037F06EC038F06FC0A4
:1014800039F070C03AF022C03BF023C03CF024C0D9
:101490003DF02638006EF00E0016005004E1275291
:1014A00002E1000E01D0010E756F75C03EF02838C4
:1014B000006EF00E0016005004E1295202E1000E09
:1014C00001D0010E756F75C03FF02A38006EF00E26
:1014D0000016005004E12B5202E1000E01D0010E73
:1014E000756F75C040F02C38006EF00E001600507D
:1014F00004E12D5202E1000E01D0010E756F75C09E
:1015000041F02E38006EF00E0016005004E12F520C
:1015100002E1000E01D0010E756F75C042F0303847
:10152000006EF00E0016005004E1315202E1000E90
:1015300001D0010E756F75C043F024D6339017ECBF
:1015400003F067516A5D01E0D5DC080E766FFA0E94
:10155000896F55EC01F0762FFAD733940BD703003F
:10156000000000000000000000000000000000007B
:10157000000000000000000000000000000000006B
:10158000000000000000000000000000000000005B
:10159000000000000000000000000000000000004B
:101B00000000500E1E6EAA0E1F6E550E206E1F5046
:101B100020181E18216E1FC053F021C054F020C0A1
:101B200055F012000000000000000000000000005E
:101B300000000000000000000000000000000000A5
:101B40000000000000000000000000000000000095
:101B50000000000000000000000000000000000085
:101B60000000000000000000000000000000000075
:020000040030CA
:0E0000000008180CC301800000000000010081
:00000001FF
